{
    "_format": "hh-sol-artifact-1",
    "contractName": "Contract",
    "sourceName": "ethereum/contracts/Contract.sol",
    "abi": [
        {
            "inputs": [],
            "stateMutability": "nonpayable",
            "type": "constructor"
        },
        {
            "anonymous": false,
            "inputs": [
                {
                    "indexed": true,
                    "internalType": "address",
                    "name": "owner",
                    "type": "address"
                },
                {
                    "indexed": true,
                    "internalType": "address",
                    "name": "approved",
                    "type": "address"
                },
                {
                    "indexed": true,
                    "internalType": "uint256",
                    "name": "tokenId",
                    "type": "uint256"
                }
            ],
            "name": "Approval",
            "type": "event"
        },
        {
            "anonymous": false,
            "inputs": [
                {
                    "indexed": true,
                    "internalType": "address",
                    "name": "owner",
                    "type": "address"
                },
                {
                    "indexed": true,
                    "internalType": "address",
                    "name": "operator",
                    "type": "address"
                },
                {
                    "indexed": false,
                    "internalType": "bool",
                    "name": "approved",
                    "type": "bool"
                }
            ],
            "name": "ApprovalForAll",
            "type": "event"
        },
        {
            "anonymous": false,
            "inputs": [
                {
                    "indexed": true,
                    "internalType": "address",
                    "name": "previousOwner",
                    "type": "address"
                },
                {
                    "indexed": true,
                    "internalType": "address",
                    "name": "newOwner",
                    "type": "address"
                }
            ],
            "name": "OwnershipTransferred",
            "type": "event"
        },
        {
            "anonymous": false,
            "inputs": [
                {
                    "indexed": false,
                    "internalType": "address",
                    "name": "account",
                    "type": "address"
                }
            ],
            "name": "Paused",
            "type": "event"
        },
        {
            "anonymous": false,
            "inputs": [
                {
                    "indexed": true,
                    "internalType": "address",
                    "name": "from",
                    "type": "address"
                },
                {
                    "indexed": true,
                    "internalType": "address",
                    "name": "to",
                    "type": "address"
                },
                {
                    "indexed": true,
                    "internalType": "uint256",
                    "name": "tokenId",
                    "type": "uint256"
                }
            ],
            "name": "Transfer",
            "type": "event"
        },
        {
            "anonymous": false,
            "inputs": [
                {
                    "indexed": false,
                    "internalType": "address",
                    "name": "account",
                    "type": "address"
                }
            ],
            "name": "Unpaused",
            "type": "event"
        },
        {
            "inputs": [],
            "name": "ITEMS_MINTED",
            "outputs": [
                {
                    "internalType": "uint256",
                    "name": "",
                    "type": "uint256"
                }
            ],
            "stateMutability": "view",
            "type": "function"
        },
        {
            "inputs": [],
            "name": "MAX_PER_MINT",
            "outputs": [
                {
                    "internalType": "uint256",
                    "name": "",
                    "type": "uint256"
                }
            ],
            "stateMutability": "view",
            "type": "function"
        },
        {
            "inputs": [],
            "name": "MAX_SUPPLY",
            "outputs": [
                {
                    "internalType": "uint256",
                    "name": "",
                    "type": "uint256"
                }
            ],
            "stateMutability": "view",
            "type": "function"
        },
        {
            "inputs": [],
            "name": "NUMBER_TO_RESERVE",
            "outputs": [
                {
                    "internalType": "uint256",
                    "name": "",
                    "type": "uint256"
                }
            ],
            "stateMutability": "view",
            "type": "function"
        },
        {
            "inputs": [],
            "name": "PRICE",
            "outputs": [
                {
                    "internalType": "uint256",
                    "name": "",
                    "type": "uint256"
                }
            ],
            "stateMutability": "view",
            "type": "function"
        },
        {
            "inputs": [
                {
                    "internalType": "address",
                    "name": "to",
                    "type": "address"
                },
                {
                    "internalType": "uint256",
                    "name": "tokenId",
                    "type": "uint256"
                }
            ],
            "name": "approve",
            "outputs": [],
            "stateMutability": "nonpayable",
            "type": "function"
        },
        {
            "inputs": [
                {
                    "internalType": "address",
                    "name": "owner",
                    "type": "address"
                }
            ],
            "name": "balanceOf",
            "outputs": [
                {
                    "internalType": "uint256",
                    "name": "",
                    "type": "uint256"
                }
            ],
            "stateMutability": "view",
            "type": "function"
        },
        {
            "inputs": [],
            "name": "baseTokenURI",
            "outputs": [
                {
                    "internalType": "string",
                    "name": "",
                    "type": "string"
                }
            ],
            "stateMutability": "view",
            "type": "function"
        },
        {
            "inputs": [
                {
                    "internalType": "uint256",
                    "name": "tokenId",
                    "type": "uint256"
                }
            ],
            "name": "getApproved",
            "outputs": [
                {
                    "internalType": "address",
                    "name": "",
                    "type": "address"
                }
            ],
            "stateMutability": "view",
            "type": "function"
        },
        {
            "inputs": [],
            "name": "getItemsLeft",
            "outputs": [
                {
                    "internalType": "uint256",
                    "name": "",
                    "type": "uint256"
                }
            ],
            "stateMutability": "view",
            "type": "function"
        },
        {
            "inputs": [
                {
                    "internalType": "address",
                    "name": "owner",
                    "type": "address"
                },
                {
                    "internalType": "address",
                    "name": "operator",
                    "type": "address"
                }
            ],
            "name": "isApprovedForAll",
            "outputs": [
                {
                    "internalType": "bool",
                    "name": "",
                    "type": "bool"
                }
            ],
            "stateMutability": "view",
            "type": "function"
        },
        {
            "inputs": [
                {
                    "internalType": "uint256",
                    "name": "_count",
                    "type": "uint256"
                }
            ],
            "name": "mintNFTs",
            "outputs": [],
            "stateMutability": "payable",
            "type": "function"
        },
        {
            "inputs": [],
            "name": "name",
            "outputs": [
                {
                    "internalType": "string",
                    "name": "",
                    "type": "string"
                }
            ],
            "stateMutability": "view",
            "type": "function"
        },
        {
            "inputs": [],
            "name": "owner",
            "outputs": [
                {
                    "internalType": "address",
                    "name": "",
                    "type": "address"
                }
            ],
            "stateMutability": "view",
            "type": "function"
        },
        {
            "inputs": [
                {
                    "internalType": "uint256",
                    "name": "tokenId",
                    "type": "uint256"
                }
            ],
            "name": "ownerOf",
            "outputs": [
                {
                    "internalType": "address",
                    "name": "",
                    "type": "address"
                }
            ],
            "stateMutability": "view",
            "type": "function"
        },
        {
            "inputs": [],
            "name": "pause",
            "outputs": [],
            "stateMutability": "nonpayable",
            "type": "function"
        },
        {
            "inputs": [],
            "name": "paused",
            "outputs": [
                {
                    "internalType": "bool",
                    "name": "",
                    "type": "bool"
                }
            ],
            "stateMutability": "view",
            "type": "function"
        },
        {
            "inputs": [],
            "name": "renounceOwnership",
            "outputs": [],
            "stateMutability": "nonpayable",
            "type": "function"
        },
        {
            "inputs": [],
            "name": "reserveNFTs",
            "outputs": [],
            "stateMutability": "nonpayable",
            "type": "function"
        },
        {
            "inputs": [
                {
                    "internalType": "address",
                    "name": "to",
                    "type": "address"
                },
                {
                    "internalType": "string",
                    "name": "uri",
                    "type": "string"
                }
            ],
            "name": "safeMint",
            "outputs": [],
            "stateMutability": "nonpayable",
            "type": "function"
        },
        {
            "inputs": [
                {
                    "internalType": "address",
                    "name": "from",
                    "type": "address"
                },
                {
                    "internalType": "address",
                    "name": "to",
                    "type": "address"
                },
                {
                    "internalType": "uint256",
                    "name": "tokenId",
                    "type": "uint256"
                }
            ],
            "name": "safeTransferFrom",
            "outputs": [],
            "stateMutability": "nonpayable",
            "type": "function"
        },
        {
            "inputs": [
                {
                    "internalType": "address",
                    "name": "from",
                    "type": "address"
                },
                {
                    "internalType": "address",
                    "name": "to",
                    "type": "address"
                },
                {
                    "internalType": "uint256",
                    "name": "tokenId",
                    "type": "uint256"
                },
                {
                    "internalType": "bytes",
                    "name": "_data",
                    "type": "bytes"
                }
            ],
            "name": "safeTransferFrom",
            "outputs": [],
            "stateMutability": "nonpayable",
            "type": "function"
        },
        {
            "inputs": [
                {
                    "internalType": "address",
                    "name": "operator",
                    "type": "address"
                },
                {
                    "internalType": "bool",
                    "name": "approved",
                    "type": "bool"
                }
            ],
            "name": "setApprovalForAll",
            "outputs": [],
            "stateMutability": "nonpayable",
            "type": "function"
        },
        {
            "inputs": [
                {
                    "internalType": "string",
                    "name": "_baseTokenURI",
                    "type": "string"
                }
            ],
            "name": "setBaseURI",
            "outputs": [],
            "stateMutability": "nonpayable",
            "type": "function"
        },
        {
            "inputs": [
                {
                    "internalType": "bytes4",
                    "name": "interfaceId",
                    "type": "bytes4"
                }
            ],
            "name": "supportsInterface",
            "outputs": [
                {
                    "internalType": "bool",
                    "name": "",
                    "type": "bool"
                }
            ],
            "stateMutability": "view",
            "type": "function"
        },
        {
            "inputs": [],
            "name": "symbol",
            "outputs": [
                {
                    "internalType": "string",
                    "name": "",
                    "type": "string"
                }
            ],
            "stateMutability": "view",
            "type": "function"
        },
        {
            "inputs": [
                {
                    "internalType": "uint256",
                    "name": "index",
                    "type": "uint256"
                }
            ],
            "name": "tokenByIndex",
            "outputs": [
                {
                    "internalType": "uint256",
                    "name": "",
                    "type": "uint256"
                }
            ],
            "stateMutability": "view",
            "type": "function"
        },
        {
            "inputs": [
                {
                    "internalType": "address",
                    "name": "owner",
                    "type": "address"
                },
                {
                    "internalType": "uint256",
                    "name": "index",
                    "type": "uint256"
                }
            ],
            "name": "tokenOfOwnerByIndex",
            "outputs": [
                {
                    "internalType": "uint256",
                    "name": "",
                    "type": "uint256"
                }
            ],
            "stateMutability": "view",
            "type": "function"
        },
        {
            "inputs": [
                {
                    "internalType": "uint256",
                    "name": "tokenId",
                    "type": "uint256"
                }
            ],
            "name": "tokenURI",
            "outputs": [
                {
                    "internalType": "string",
                    "name": "",
                    "type": "string"
                }
            ],
            "stateMutability": "view",
            "type": "function"
        },
        {
            "inputs": [
                {
                    "internalType": "address",
                    "name": "_owner",
                    "type": "address"
                }
            ],
            "name": "tokensOfOwner",
            "outputs": [
                {
                    "internalType": "uint256[]",
                    "name": "",
                    "type": "uint256[]"
                }
            ],
            "stateMutability": "view",
            "type": "function"
        },
        {
            "inputs": [],
            "name": "totalSupply",
            "outputs": [
                {
                    "internalType": "uint256",
                    "name": "",
                    "type": "uint256"
                }
            ],
            "stateMutability": "view",
            "type": "function"
        },
        {
            "inputs": [
                {
                    "internalType": "address",
                    "name": "from",
                    "type": "address"
                },
                {
                    "internalType": "address",
                    "name": "to",
                    "type": "address"
                },
                {
                    "internalType": "uint256",
                    "name": "tokenId",
                    "type": "uint256"
                }
            ],
            "name": "transferFrom",
            "outputs": [],
            "stateMutability": "nonpayable",
            "type": "function"
        },
        {
            "inputs": [
                {
                    "internalType": "address",
                    "name": "newOwner",
                    "type": "address"
                }
            ],
            "name": "transferOwnership",
            "outputs": [],
            "stateMutability": "nonpayable",
            "type": "function"
        },
        {
            "inputs": [],
            "name": "unpause",
            "outputs": [],
            "stateMutability": "nonpayable",
            "type": "function"
        },
        {
            "inputs": [],
            "name": "withdraw",
            "outputs": [],
            "stateMutability": "payable",
            "type": "function"
        }
    ],
    "bytecode": "0x608060405260405180606001604052806036815260200162004e6860369139600d90805190602001906200003592919062000220565b503480156200004357600080fd5b506040518060400160405280600881526020017f436f6e74726163740000000000000000000000000000000000000000000000008152506040518060400160405280600881526020017f436f6e74726163740000000000000000000000000000000000000000000000008152508160009080519060200190620000c892919062000220565b508060019080519060200190620000e192919062000220565b5050506000600b60006101000a81548160ff0219169083151502179055506200011f620001136200013c60201b60201c565b6200014460201b60201c565b62000136600c6200020a60201b6200189a1760201c565b62000335565b600033905090565b6000600b60019054906101000a900473ffffffffffffffffffffffffffffffffffffffff16905081600b60016101000a81548173ffffffffffffffffffffffffffffffffffffffff021916908373ffffffffffffffffffffffffffffffffffffffff1602179055508173ffffffffffffffffffffffffffffffffffffffff168173ffffffffffffffffffffffffffffffffffffffff167f8be0079c531659141344cd1fd0a4f28419497f9722a3daafe3b4186f6b6457e060405160405180910390a35050565b6001816000016000828254019250508190555050565b8280546200022e90620002d0565b90600052602060002090601f0160209004810192826200025257600085556200029e565b82601f106200026d57805160ff19168380011785556200029e565b828001600101855582156200029e579182015b828111156200029d57825182559160200191906001019062000280565b5b509050620002ad9190620002b1565b5090565b5b80821115620002cc576000816000905550600101620002b2565b5090565b60006002820490506001821680620002e957607f821691505b602082108114156200030057620002ff62000306565b5b50919050565b7f4e487b7100000000000000000000000000000000000000000000000000000000600052602260045260246000fd5b614b2380620003456000396000f3fe6080604052600436106102045760003560e01c80635c975abb1161011857806395d89b41116100a0578063d204c45e1161006f578063d204c45e14610717578063d547cfb714610740578063e143423c1461076b578063e985e9c514610796578063f2fde38b146107d357610204565b806395d89b411461065d578063a22cb46514610688578063b88d4fde146106b1578063c87b56dd146106da57610204565b80638190975a116100e75780638190975a146105885780638456cb59146105b35780638462151c146105ca5780638d859f3e146106075780638da5cb5b1461063257610204565b80635c975abb146104cc5780636352211e146104f757806370a0823114610534578063715018a61461057157610204565b80632f745c591161019b5780633f4ba83a1161016a5780633f4ba83a146103fb57806342842e0e146104125780634f6ccce71461043b57806355f804b3146104785780635b82fc2b146104a157610204565b80632f745c591461036d57806332cb6b0c146103aa5780633b4b1381146103d55780633ccfd60b146103f157610204565b806309d42b30116101d757806309d42b30146102d7578063144100c71461030257806318160ddd1461031957806323b872dd1461034457610204565b806301ffc9a71461020957806306fdde0314610246578063081812fc14610271578063095ea7b3146102ae575b600080fd5b34801561021557600080fd5b50610230600480360381019061022b9190613441565b6107fc565b60405161023d9190613b0b565b60405180910390f35b34801561025257600080fd5b5061025b61080e565b6040516102689190613b26565b60405180910390f35b34801561027d57600080fd5b50610298600480360381019061029391906134d4565b6108a0565b6040516102a59190613a82565b60405180910390f35b3480156102ba57600080fd5b506102d560048036038101906102d09190613405565b610925565b005b3480156102e357600080fd5b506102ec610a3d565b6040516102f99190613ec8565b60405180910390f35b34801561030e57600080fd5b50610317610a42565b005b34801561032557600080fd5b5061032e610b46565b60405161033b9190613ec8565b60405180910390f35b34801561035057600080fd5b5061036b600480360381019061036691906132ab565b610b53565b005b34801561037957600080fd5b50610394600480360381019061038f9190613405565b610bb3565b6040516103a19190613ec8565b60405180910390f35b3480156103b657600080fd5b506103bf610c58565b6040516103cc9190613ec8565b60405180910390f35b6103ef60048036038101906103ea91906134d4565b610c5d565b005b6103f9610d8a565b005b34801561040757600080fd5b50610410610efe565b005b34801561041e57600080fd5b50610439600480360381019061043491906132ab565b610f84565b005b34801561044757600080fd5b50610462600480360381019061045d91906134d4565b610fa4565b60405161046f9190613ec8565b60405180910390f35b34801561048457600080fd5b5061049f600480360381019061049a9190613493565b61103b565b005b3480156104ad57600080fd5b506104b66110d1565b6040516104c39190613ec8565b60405180910390f35b3480156104d857600080fd5b506104e16110d6565b6040516104ee9190613b0b565b60405180910390f35b34801561050357600080fd5b5061051e600480360381019061051991906134d4565b6110ed565b60405161052b9190613a82565b60405180910390f35b34801561054057600080fd5b5061055b60048036038101906105569190613246565b61119f565b6040516105689190613ec8565b60405180910390f35b34801561057d57600080fd5b50610586611257565b005b34801561059457600080fd5b5061059d6112df565b6040516105aa9190613ec8565b60405180910390f35b3480156105bf57600080fd5b506105c86112e4565b005b3480156105d657600080fd5b506105f160048036038101906105ec9190613246565b61136a565b6040516105fe9190613ae9565b60405180910390f35b34801561061357600080fd5b5061061c611464565b6040516106299190613ec8565b60405180910390f35b34801561063e57600080fd5b5061064761146f565b6040516106549190613a82565b60405180910390f35b34801561066957600080fd5b50610672611499565b60405161067f9190613b26565b60405180910390f35b34801561069457600080fd5b506106af60048036038101906106aa9190613375565b61152b565b005b3480156106bd57600080fd5b506106d860048036038101906106d391906132fa565b611541565b005b3480156106e657600080fd5b5061070160048036038101906106fc91906134d4565b6115a3565b60405161070e9190613b26565b60405180910390f35b34801561072357600080fd5b5061073e600480360381019061073991906133b1565b6115b5565b005b34801561074c57600080fd5b50610755611662565b6040516107629190613b26565b60405180910390f35b34801561077757600080fd5b506107806116f0565b60405161078d9190613ec8565b60405180910390f35b3480156107a257600080fd5b506107bd60048036038101906107b8919061326f565b61170e565b6040516107ca9190613b0b565b60405180910390f35b3480156107df57600080fd5b506107fa60048036038101906107f59190613246565b6117a2565b005b6000610807826118b0565b9050919050565b60606000805461081d906141bc565b80601f0160208091040260200160405190810160405280929190818152602001828054610849906141bc565b80156108965780601f1061086b57610100808354040283529160200191610896565b820191906000526020600020905b81548152906001019060200180831161087957829003601f168201915b5050505050905090565b60006108ab8261192a565b6108ea576040517f08c379a00000000000000000000000000000000000000000000000000000000081526004016108e190613dc8565b60405180910390fd5b6004600083815260200190815260200160002060009054906101000a900473ffffffffffffffffffffffffffffffffffffffff169050919050565b6000610930826110ed565b90508073ffffffffffffffffffffffffffffffffffffffff168373ffffffffffffffffffffffffffffffffffffffff1614156109a1576040517f08c379a000000000000000000000000000000000000000000000000000000000815260040161099890613e48565b60405180910390fd5b8073ffffffffffffffffffffffffffffffffffffffff166109c0611996565b73ffffffffffffffffffffffffffffffffffffffff1614806109ef57506109ee816109e9611996565b61170e565b5b610a2e576040517f08c379a0000000000000000000000000000000000000000000000000000000008152600401610a2590613cc8565b60405180910390fd5b610a38838361199e565b505050565b600581565b610a4a611996565b73ffffffffffffffffffffffffffffffffffffffff16610a6861146f565b73ffffffffffffffffffffffffffffffffffffffff1614610abe576040517f08c379a0000000000000000000000000000000000000000000000000000000008152600401610ab590613de8565b60405180910390fd5b6000610aca600c611a57565b90506064600a82610adb9190613ff1565b10610b1b576040517f08c379a0000000000000000000000000000000000000000000000000000000008152600401610b1290613d48565b60405180910390fd5b60005b600a811015610b4257610b2f611a65565b8080610b3a9061421f565b915050610b1e565b5050565b6000600880549050905090565b610b64610b5e611996565b82611a8a565b610ba3576040517f08c379a0000000000000000000000000000000000000000000000000000000008152600401610b9a90613e88565b60405180910390fd5b610bae838383611b68565b505050565b6000610bbe8361119f565b8210610bff576040517f08c379a0000000000000000000000000000000000000000000000000000000008152600401610bf690613b88565b60405180910390fd5b600660008473ffffffffffffffffffffffffffffffffffffffff1673ffffffffffffffffffffffffffffffffffffffff168152602001908152602001600020600083815260200190815260200160002054905092915050565b606481565b6000610c69600c611a57565b905060648282610c799190613ff1565b1115610cba576040517f08c379a0000000000000000000000000000000000000000000000000000000008152600401610cb190613b68565b60405180910390fd5b600082118015610ccb575060058211155b610d0a576040517f08c379a0000000000000000000000000000000000000000000000000000000008152600401610d0190613c68565b60405180910390fd5b81662386f26fc10000610d1d9190614078565b341015610d5f576040517f08c379a0000000000000000000000000000000000000000000000000000000008152600401610d5690613c48565b60405180910390fd5b60005b82811015610d8557610d72611a65565b8080610d7d9061421f565b915050610d62565b505050565b610d92611996565b73ffffffffffffffffffffffffffffffffffffffff16610db061146f565b73ffffffffffffffffffffffffffffffffffffffff1614610e06576040517f08c379a0000000000000000000000000000000000000000000000000000000008152600401610dfd90613de8565b60405180910390fd5b600047905060008111610e4e576040517f08c379a0000000000000000000000000000000000000000000000000000000008152600401610e4590613d88565b60405180910390fd5b60003373ffffffffffffffffffffffffffffffffffffffff1682604051610e7490613a6d565b60006040518083038185875af1925050503d8060008114610eb1576040519150601f19603f3d011682016040523d82523d6000602084013e610eb6565b606091505b5050905080610efa576040517f08c379a0000000000000000000000000000000000000000000000000000000008152600401610ef190613e68565b60405180910390fd5b5050565b610f06611996565b73ffffffffffffffffffffffffffffffffffffffff16610f2461146f565b73ffffffffffffffffffffffffffffffffffffffff1614610f7a576040517f08c379a0000000000000000000000000000000000000000000000000000000008152600401610f7190613de8565b60405180910390fd5b610f82611dc4565b565b610f9f83838360405180602001604052806000815250611541565b505050565b6000610fae610b46565b8210610fef576040517f08c379a0000000000000000000000000000000000000000000000000000000008152600401610fe690613ea8565b60405180910390fd5b60088281548110611029577f4e487b7100000000000000000000000000000000000000000000000000000000600052603260045260246000fd5b90600052602060002001549050919050565b611043611996565b73ffffffffffffffffffffffffffffffffffffffff1661106161146f565b73ffffffffffffffffffffffffffffffffffffffff16146110b7576040517f08c379a00000000000000000000000000000000000000000000000000000000081526004016110ae90613de8565b60405180910390fd5b80600d90805190602001906110cd92919061306a565b5050565b600081565b6000600b60009054906101000a900460ff16905090565b6000806002600084815260200190815260200160002060009054906101000a900473ffffffffffffffffffffffffffffffffffffffff169050600073ffffffffffffffffffffffffffffffffffffffff168173ffffffffffffffffffffffffffffffffffffffff161415611196576040517f08c379a000000000000000000000000000000000000000000000000000000000815260040161118d90613d08565b60405180910390fd5b80915050919050565b60008073ffffffffffffffffffffffffffffffffffffffff168273ffffffffffffffffffffffffffffffffffffffff161415611210576040517f08c379a000000000000000000000000000000000000000000000000000000000815260040161120790613ce8565b60405180910390fd5b600360008373ffffffffffffffffffffffffffffffffffffffff1673ffffffffffffffffffffffffffffffffffffffff168152602001908152602001600020549050919050565b61125f611996565b73ffffffffffffffffffffffffffffffffffffffff1661127d61146f565b73ffffffffffffffffffffffffffffffffffffffff16146112d3576040517f08c379a00000000000000000000000000000000000000000000000000000000081526004016112ca90613de8565b60405180910390fd5b6112dd6000611e66565b565b600a81565b6112ec611996565b73ffffffffffffffffffffffffffffffffffffffff1661130a61146f565b73ffffffffffffffffffffffffffffffffffffffff1614611360576040517f08c379a000000000000000000000000000000000000000000000000000000000815260040161135790613de8565b60405180910390fd5b611368611f2c565b565b606060006113778361119f565b905060008167ffffffffffffffff8111156113bb577f4e487b7100000000000000000000000000000000000000000000000000000000600052604160045260246000fd5b6040519080825280602002602001820160405280156113e95781602001602082028036833780820191505090505b50905060005b82811015611459576114018582610bb3565b82828151811061143a577f4e487b7100000000000000000000000000000000000000000000000000000000600052603260045260246000fd5b60200260200101818152505080806114519061421f565b9150506113ef565b508092505050919050565b662386f26fc1000081565b6000600b60019054906101000a900473ffffffffffffffffffffffffffffffffffffffff16905090565b6060600180546114a8906141bc565b80601f01602080910402602001604051908101604052809291908181526020018280546114d4906141bc565b80156115215780601f106114f657610100808354040283529160200191611521565b820191906000526020600020905b81548152906001019060200180831161150457829003601f168201915b5050505050905090565b61153d611536611996565b8383611fcf565b5050565b61155261154c611996565b83611a8a565b611591576040517f08c379a000000000000000000000000000000000000000000000000000000000815260040161158890613e88565b60405180910390fd5b61159d8484848461213c565b50505050565b60606115ae82612198565b9050919050565b6115bd611996565b73ffffffffffffffffffffffffffffffffffffffff166115db61146f565b73ffffffffffffffffffffffffffffffffffffffff1614611631576040517f08c379a000000000000000000000000000000000000000000000000000000000815260040161162890613de8565b60405180910390fd5b600061163d600c611a57565b9050611649600c61189a565b61165383826122ea565b61165d8183612308565b505050565b600d805461166f906141bc565b80601f016020809104026020016040519081016040528092919081815260200182805461169b906141bc565b80156116e85780601f106116bd576101008083540402835291602001916116e8565b820191906000526020600020905b8154815290600101906020018083116116cb57829003601f168201915b505050505081565b60006116fc600c611a57565b6103e961170991906140d2565b905090565b6000600560008473ffffffffffffffffffffffffffffffffffffffff1673ffffffffffffffffffffffffffffffffffffffff16815260200190815260200160002060008373ffffffffffffffffffffffffffffffffffffffff1673ffffffffffffffffffffffffffffffffffffffff16815260200190815260200160002060009054906101000a900460ff16905092915050565b6117aa611996565b73ffffffffffffffffffffffffffffffffffffffff166117c861146f565b73ffffffffffffffffffffffffffffffffffffffff161461181e576040517f08c379a000000000000000000000000000000000000000000000000000000000815260040161181590613de8565b60405180910390fd5b600073ffffffffffffffffffffffffffffffffffffffff168173ffffffffffffffffffffffffffffffffffffffff16141561188e576040517f08c379a000000000000000000000000000000000000000000000000000000000815260040161188590613bc8565b60405180910390fd5b61189781611e66565b50565b6001816000016000828254019250508190555050565b60007f780e9d63000000000000000000000000000000000000000000000000000000007bffffffffffffffffffffffffffffffffffffffffffffffffffffffff1916827bffffffffffffffffffffffffffffffffffffffffffffffffffffffff1916148061192357506119228261237c565b5b9050919050565b60008073ffffffffffffffffffffffffffffffffffffffff166002600084815260200190815260200160002060009054906101000a900473ffffffffffffffffffffffffffffffffffffffff1673ffffffffffffffffffffffffffffffffffffffff1614159050919050565b600033905090565b816004600083815260200190815260200160002060006101000a81548173ffffffffffffffffffffffffffffffffffffffff021916908373ffffffffffffffffffffffffffffffffffffffff160217905550808273ffffffffffffffffffffffffffffffffffffffff16611a11836110ed565b73ffffffffffffffffffffffffffffffffffffffff167f8c5be1e5ebec7d5bd14f71427d1e84f3dd0314c0f7b2291e5b200ac8c7c3b92560405160405180910390a45050565b600081600001549050919050565b6000611a71600c611a57565b9050611a7d33826122ea565b611a87600c61189a565b50565b6000611a958261192a565b611ad4576040517f08c379a0000000000000000000000000000000000000000000000000000000008152600401611acb90613c88565b60405180910390fd5b6000611adf836110ed565b90508073ffffffffffffffffffffffffffffffffffffffff168473ffffffffffffffffffffffffffffffffffffffff161480611b4e57508373ffffffffffffffffffffffffffffffffffffffff16611b36846108a0565b73ffffffffffffffffffffffffffffffffffffffff16145b80611b5f5750611b5e818561170e565b5b91505092915050565b8273ffffffffffffffffffffffffffffffffffffffff16611b88826110ed565b73ffffffffffffffffffffffffffffffffffffffff1614611bde576040517f08c379a0000000000000000000000000000000000000000000000000000000008152600401611bd590613e08565b60405180910390fd5b600073ffffffffffffffffffffffffffffffffffffffff168273ffffffffffffffffffffffffffffffffffffffff161415611c4e576040517f08c379a0000000000000000000000000000000000000000000000000000000008152600401611c4590613c08565b60405180910390fd5b611c5983838361245e565b611c6460008261199e565b6001600360008573ffffffffffffffffffffffffffffffffffffffff1673ffffffffffffffffffffffffffffffffffffffff1681526020019081526020016000206000828254611cb491906140d2565b925050819055506001600360008473ffffffffffffffffffffffffffffffffffffffff1673ffffffffffffffffffffffffffffffffffffffff1681526020019081526020016000206000828254611d0b9190613ff1565b92505081905550816002600083815260200190815260200160002060006101000a81548173ffffffffffffffffffffffffffffffffffffffff021916908373ffffffffffffffffffffffffffffffffffffffff160217905550808273ffffffffffffffffffffffffffffffffffffffff168473ffffffffffffffffffffffffffffffffffffffff167fddf252ad1be2c89b69c2b068fc378daa952ba7f163c4a11628f55a4df523b3ef60405160405180910390a4505050565b611dcc6110d6565b611e0b576040517f08c379a0000000000000000000000000000000000000000000000000000000008152600401611e0290613b48565b60405180910390fd5b6000600b60006101000a81548160ff0219169083151502179055507f5db9ee0a495bf2e6ff9c91a7834c1ba4fdd244a5e8aa4e537bd38aeae4b073aa611e4f611996565b604051611e5c9190613a82565b60405180910390a1565b6000600b60019054906101000a900473ffffffffffffffffffffffffffffffffffffffff16905081600b60016101000a81548173ffffffffffffffffffffffffffffffffffffffff021916908373ffffffffffffffffffffffffffffffffffffffff1602179055508173ffffffffffffffffffffffffffffffffffffffff168173ffffffffffffffffffffffffffffffffffffffff167f8be0079c531659141344cd1fd0a4f28419497f9722a3daafe3b4186f6b6457e060405160405180910390a35050565b611f346110d6565b15611f74576040517f08c379a0000000000000000000000000000000000000000000000000000000008152600401611f6b90613ca8565b60405180910390fd5b6001600b60006101000a81548160ff0219169083151502179055507f62e78cea01bee320cd4e420270b5ea74000d11b0c9f74754ebdbfc544b05a258611fb8611996565b604051611fc59190613a82565b60405180910390a1565b8173ffffffffffffffffffffffffffffffffffffffff168373ffffffffffffffffffffffffffffffffffffffff16141561203e576040517f08c379a000000000000000000000000000000000000000000000000000000000815260040161203590613c28565b60405180910390fd5b80600560008573ffffffffffffffffffffffffffffffffffffffff1673ffffffffffffffffffffffffffffffffffffffff16815260200190815260200160002060008473ffffffffffffffffffffffffffffffffffffffff1673ffffffffffffffffffffffffffffffffffffffff16815260200190815260200160002060006101000a81548160ff0219169083151502179055508173ffffffffffffffffffffffffffffffffffffffff168373ffffffffffffffffffffffffffffffffffffffff167f17307eab39ab6107e8899845ad3d59bd9653f200f220920489ca2b5937696c318360405161212f9190613b0b565b60405180910390a3505050565b612147848484611b68565b612153848484846124b6565b612192576040517f08c379a000000000000000000000000000000000000000000000000000000000815260040161218990613ba8565b60405180910390fd5b50505050565b60606121a38261192a565b6121e2576040517f08c379a00000000000000000000000000000000000000000000000000000000081526004016121d990613da8565b60405180910390fd5b6000600a60008481526020019081526020016000208054612202906141bc565b80601f016020809104026020016040519081016040528092919081815260200182805461222e906141bc565b801561227b5780601f106122505761010080835404028352916020019161227b565b820191906000526020600020905b81548152906001019060200180831161225e57829003601f168201915b50505050509050600061228c61264d565b90506000815114156122a25781925050506122e5565b6000825111156122d75780826040516020016122bf929190613a49565b604051602081830303815290604052925050506122e5565b6122e0846126df565b925050505b919050565b612304828260405180602001604052806000815250612786565b5050565b6123118261192a565b612350576040517f08c379a000000000000000000000000000000000000000000000000000000000815260040161234790613d28565b60405180910390fd5b80600a6000848152602001908152602001600020908051906020019061237792919061306a565b505050565b60007f80ac58cd000000000000000000000000000000000000000000000000000000007bffffffffffffffffffffffffffffffffffffffffffffffffffffffff1916827bffffffffffffffffffffffffffffffffffffffffffffffffffffffff1916148061244757507f5b5e139f000000000000000000000000000000000000000000000000000000007bffffffffffffffffffffffffffffffffffffffffffffffffffffffff1916827bffffffffffffffffffffffffffffffffffffffffffffffffffffffff1916145b806124575750612456826127e1565b5b9050919050565b6124666110d6565b156124a6576040517f08c379a000000000000000000000000000000000000000000000000000000000815260040161249d90613ca8565b60405180910390fd5b6124b183838361284b565b505050565b60006124d78473ffffffffffffffffffffffffffffffffffffffff1661295f565b15612640578373ffffffffffffffffffffffffffffffffffffffff1663150b7a02612500611996565b8786866040518563ffffffff1660e01b81526004016125229493929190613a9d565b602060405180830381600087803b15801561253c57600080fd5b505af192505050801561256d57506040513d601f19601f8201168201806040525081019061256a919061346a565b60015b6125f0573d806000811461259d576040519150601f19603f3d011682016040523d82523d6000602084013e6125a2565b606091505b506000815114156125e8576040517f08c379a00000000000000000000000000000000000000000000000000000000081526004016125df90613ba8565b60405180910390fd5b805181602001fd5b63150b7a0260e01b7bffffffffffffffffffffffffffffffffffffffffffffffffffffffff1916817bffffffffffffffffffffffffffffffffffffffffffffffffffffffff191614915050612645565b600190505b949350505050565b6060600d805461265c906141bc565b80601f0160208091040260200160405190810160405280929190818152602001828054612688906141bc565b80156126d55780601f106126aa576101008083540402835291602001916126d5565b820191906000526020600020905b8154815290600101906020018083116126b857829003601f168201915b5050505050905090565b60606126ea8261192a565b612729576040517f08c379a000000000000000000000000000000000000000000000000000000000815260040161272090613e28565b60405180910390fd5b600061273361264d565b90506000815111612753576040518060200160405280600081525061277e565b8061275d84612972565b60405160200161276e929190613a49565b6040516020818303038152906040525b915050919050565b6127908383612b1f565b61279d60008484846124b6565b6127dc576040517f08c379a00000000000000000000000000000000000000000000000000000000081526004016127d390613ba8565b60405180910390fd5b505050565b60007f01ffc9a7000000000000000000000000000000000000000000000000000000007bffffffffffffffffffffffffffffffffffffffffffffffffffffffff1916827bffffffffffffffffffffffffffffffffffffffffffffffffffffffff1916149050919050565b612856838383612ced565b600073ffffffffffffffffffffffffffffffffffffffff168373ffffffffffffffffffffffffffffffffffffffff1614156128995761289481612cf2565b6128d8565b8173ffffffffffffffffffffffffffffffffffffffff168373ffffffffffffffffffffffffffffffffffffffff16146128d7576128d68382612d3b565b5b5b600073ffffffffffffffffffffffffffffffffffffffff168273ffffffffffffffffffffffffffffffffffffffff16141561291b5761291681612ea8565b61295a565b8273ffffffffffffffffffffffffffffffffffffffff168273ffffffffffffffffffffffffffffffffffffffff1614612959576129588282612feb565b5b5b505050565b600080823b905060008111915050919050565b606060008214156129ba576040518060400160405280600181526020017f30000000000000000000000000000000000000000000000000000000000000008152509050612b1a565b600082905060005b600082146129ec5780806129d59061421f565b915050600a826129e59190614047565b91506129c2565b60008167ffffffffffffffff811115612a2e577f4e487b7100000000000000000000000000000000000000000000000000000000600052604160045260246000fd5b6040519080825280601f01601f191660200182016040528015612a605781602001600182028036833780820191505090505b5090505b60008514612b1357600182612a7991906140d2565b9150600a85612a889190614268565b6030612a949190613ff1565b60f81b818381518110612ad0577f4e487b7100000000000000000000000000000000000000000000000000000000600052603260045260246000fd5b60200101907effffffffffffffffffffffffffffffffffffffffffffffffffffffffffffff1916908160001a905350600a85612b0c9190614047565b9450612a64565b8093505050505b919050565b600073ffffffffffffffffffffffffffffffffffffffff168273ffffffffffffffffffffffffffffffffffffffff161415612b8f576040517f08c379a0000000000000000000000000000000000000000000000000000000008152600401612b8690613d68565b60405180910390fd5b612b988161192a565b15612bd8576040517f08c379a0000000000000000000000000000000000000000000000000000000008152600401612bcf90613be8565b60405180910390fd5b612be46000838361245e565b6001600360008473ffffffffffffffffffffffffffffffffffffffff1673ffffffffffffffffffffffffffffffffffffffff1681526020019081526020016000206000828254612c349190613ff1565b92505081905550816002600083815260200190815260200160002060006101000a81548173ffffffffffffffffffffffffffffffffffffffff021916908373ffffffffffffffffffffffffffffffffffffffff160217905550808273ffffffffffffffffffffffffffffffffffffffff16600073ffffffffffffffffffffffffffffffffffffffff167fddf252ad1be2c89b69c2b068fc378daa952ba7f163c4a11628f55a4df523b3ef60405160405180910390a45050565b505050565b6008805490506009600083815260200190815260200160002081905550600881908060018154018082558091505060019003906000526020600020016000909190919091505550565b60006001612d488461119f565b612d5291906140d2565b9050600060076000848152602001908152602001600020549050818114612e37576000600660008673ffffffffffffffffffffffffffffffffffffffff1673ffffffffffffffffffffffffffffffffffffffff168152602001908152602001600020600084815260200190815260200160002054905080600660008773ffffffffffffffffffffffffffffffffffffffff1673ffffffffffffffffffffffffffffffffffffffff168152602001908152602001600020600084815260200190815260200160002081905550816007600083815260200190815260200160002081905550505b6007600084815260200190815260200160002060009055600660008573ffffffffffffffffffffffffffffffffffffffff1673ffffffffffffffffffffffffffffffffffffffff16815260200190815260200160002060008381526020019081526020016000206000905550505050565b60006001600880549050612ebc91906140d2565b9050600060096000848152602001908152602001600020549050600060088381548110612f12577f4e487b7100000000000000000000000000000000000000000000000000000000600052603260045260246000fd5b906000526020600020015490508060088381548110612f5a577f4e487b7100000000000000000000000000000000000000000000000000000000600052603260045260246000fd5b906000526020600020018190555081600960008381526020019081526020016000208190555060096000858152602001908152602001600020600090556008805480612fcf577f4e487b7100000000000000000000000000000000000000000000000000000000600052603160045260246000fd5b6001900381819060005260206000200160009055905550505050565b6000612ff68361119f565b905081600660008573ffffffffffffffffffffffffffffffffffffffff1673ffffffffffffffffffffffffffffffffffffffff168152602001908152602001600020600083815260200190815260200160002081905550806007600084815260200190815260200160002081905550505050565b828054613076906141bc565b90600052602060002090601f01602090048101928261309857600085556130df565b82601f106130b157805160ff19168380011785556130df565b828001600101855582156130df579182015b828111156130de5782518255916020019190600101906130c3565b5b5090506130ec91906130f0565b5090565b5b808211156131095760008160009055506001016130f1565b5090565b600061312061311b84613f08565b613ee3565b90508281526020810184848401111561313857600080fd5b61314384828561417a565b509392505050565b600061315e61315984613f39565b613ee3565b90508281526020810184848401111561317657600080fd5b61318184828561417a565b509392505050565b60008135905061319881614a91565b92915050565b6000813590506131ad81614aa8565b92915050565b6000813590506131c281614abf565b92915050565b6000815190506131d781614abf565b92915050565b600082601f8301126131ee57600080fd5b81356131fe84826020860161310d565b91505092915050565b600082601f83011261321857600080fd5b813561322884826020860161314b565b91505092915050565b60008135905061324081614ad6565b92915050565b60006020828403121561325857600080fd5b600061326684828501613189565b91505092915050565b6000806040838503121561328257600080fd5b600061329085828601613189565b92505060206132a185828601613189565b9150509250929050565b6000806000606084860312156132c057600080fd5b60006132ce86828701613189565b93505060206132df86828701613189565b92505060406132f086828701613231565b9150509250925092565b6000806000806080858703121561331057600080fd5b600061331e87828801613189565b945050602061332f87828801613189565b935050604061334087828801613231565b925050606085013567ffffffffffffffff81111561335d57600080fd5b613369878288016131dd565b91505092959194509250565b6000806040838503121561338857600080fd5b600061339685828601613189565b92505060206133a78582860161319e565b9150509250929050565b600080604083850312156133c457600080fd5b60006133d285828601613189565b925050602083013567ffffffffffffffff8111156133ef57600080fd5b6133fb85828601613207565b9150509250929050565b6000806040838503121561341857600080fd5b600061342685828601613189565b925050602061343785828601613231565b9150509250929050565b60006020828403121561345357600080fd5b6000613461848285016131b3565b91505092915050565b60006020828403121561347c57600080fd5b600061348a848285016131c8565b91505092915050565b6000602082840312156134a557600080fd5b600082013567ffffffffffffffff8111156134bf57600080fd5b6134cb84828501613207565b91505092915050565b6000602082840312156134e657600080fd5b60006134f484828501613231565b91505092915050565b60006135098383613a2b565b60208301905092915050565b61351e81614106565b82525050565b600061352f82613f7a565b6135398185613fa8565b935061354483613f6a565b8060005b8381101561357557815161355c88826134fd565b975061356783613f9b565b925050600181019050613548565b5085935050505092915050565b61358b81614118565b82525050565b600061359c82613f85565b6135a68185613fb9565b93506135b6818560208601614189565b6135bf81614355565b840191505092915050565b60006135d582613f90565b6135df8185613fd5565b93506135ef818560208601614189565b6135f881614355565b840191505092915050565b600061360e82613f90565b6136188185613fe6565b9350613628818560208601614189565b80840191505092915050565b6000613641601483613fd5565b915061364c82614366565b602082019050919050565b6000613664601083613fd5565b915061366f8261438f565b602082019050919050565b6000613687602b83613fd5565b9150613692826143b8565b604082019050919050565b60006136aa603283613fd5565b91506136b582614407565b604082019050919050565b60006136cd602683613fd5565b91506136d882614456565b604082019050919050565b60006136f0601c83613fd5565b91506136fb826144a5565b602082019050919050565b6000613713602483613fd5565b915061371e826144ce565b604082019050919050565b6000613736601983613fd5565b91506137418261451d565b602082019050919050565b6000613759602283613fd5565b915061376482614546565b604082019050919050565b600061377c602583613fd5565b915061378782614595565b604082019050919050565b600061379f602c83613fd5565b91506137aa826145e4565b604082019050919050565b60006137c2601083613fd5565b91506137cd82614633565b602082019050919050565b60006137e5603883613fd5565b91506137f08261465c565b604082019050919050565b6000613808602a83613fd5565b9150613813826146ab565b604082019050919050565b600061382b602983613fd5565b9150613836826146fa565b604082019050919050565b600061384e602e83613fd5565b915061385982614749565b604082019050919050565b6000613871600f83613fd5565b915061387c82614798565b602082019050919050565b6000613894602083613fd5565b915061389f826147c1565b602082019050919050565b60006138b7601983613fd5565b91506138c2826147ea565b602082019050919050565b60006138da603183613fd5565b91506138e582614813565b604082019050919050565b60006138fd602c83613fd5565b915061390882614862565b604082019050919050565b6000613920602083613fd5565b915061392b826148b1565b602082019050919050565b6000613943602983613fd5565b915061394e826148da565b604082019050919050565b6000613966602f83613fd5565b915061397182614929565b604082019050919050565b6000613989602183613fd5565b915061399482614978565b604082019050919050565b60006139ac600083613fca565b91506139b7826149c7565b600082019050919050565b60006139cf601083613fd5565b91506139da826149ca565b602082019050919050565b60006139f2603183613fd5565b91506139fd826149f3565b604082019050919050565b6000613a15602c83613fd5565b9150613a2082614a42565b604082019050919050565b613a3481614170565b82525050565b613a4381614170565b82525050565b6000613a558285613603565b9150613a618284613603565b91508190509392505050565b6000613a788261399f565b9150819050919050565b6000602082019050613a976000830184613515565b92915050565b6000608082019050613ab26000830187613515565b613abf6020830186613515565b613acc6040830185613a3a565b8181036060830152613ade8184613591565b905095945050505050565b60006020820190508181036000830152613b038184613524565b905092915050565b6000602082019050613b206000830184613582565b92915050565b60006020820190508181036000830152613b4081846135ca565b905092915050565b60006020820190508181036000830152613b6181613634565b9050919050565b60006020820190508181036000830152613b8181613657565b9050919050565b60006020820190508181036000830152613ba18161367a565b9050919050565b60006020820190508181036000830152613bc18161369d565b9050919050565b60006020820190508181036000830152613be1816136c0565b9050919050565b60006020820190508181036000830152613c01816136e3565b9050919050565b60006020820190508181036000830152613c2181613706565b9050919050565b60006020820190508181036000830152613c4181613729565b9050919050565b60006020820190508181036000830152613c618161374c565b9050919050565b60006020820190508181036000830152613c818161376f565b9050919050565b60006020820190508181036000830152613ca181613792565b9050919050565b60006020820190508181036000830152613cc1816137b5565b9050919050565b60006020820190508181036000830152613ce1816137d8565b9050919050565b60006020820190508181036000830152613d01816137fb565b9050919050565b60006020820190508181036000830152613d218161381e565b9050919050565b60006020820190508181036000830152613d4181613841565b9050919050565b60006020820190508181036000830152613d6181613864565b9050919050565b60006020820190508181036000830152613d8181613887565b9050919050565b60006020820190508181036000830152613da1816138aa565b9050919050565b60006020820190508181036000830152613dc1816138cd565b9050919050565b60006020820190508181036000830152613de1816138f0565b9050919050565b60006020820190508181036000830152613e0181613913565b9050919050565b60006020820190508181036000830152613e2181613936565b9050919050565b60006020820190508181036000830152613e4181613959565b9050919050565b60006020820190508181036000830152613e618161397c565b9050919050565b60006020820190508181036000830152613e81816139c2565b9050919050565b60006020820190508181036000830152613ea1816139e5565b9050919050565b60006020820190508181036000830152613ec181613a08565b9050919050565b6000602082019050613edd6000830184613a3a565b92915050565b6000613eed613efe565b9050613ef982826141ee565b919050565b6000604051905090565b600067ffffffffffffffff821115613f2357613f22614326565b5b613f2c82614355565b9050602081019050919050565b600067ffffffffffffffff821115613f5457613f53614326565b5b613f5d82614355565b9050602081019050919050565b6000819050602082019050919050565b600081519050919050565b600081519050919050565b600081519050919050565b6000602082019050919050565b600082825260208201905092915050565b600082825260208201905092915050565b600081905092915050565b600082825260208201905092915050565b600081905092915050565b6000613ffc82614170565b915061400783614170565b9250827fffffffffffffffffffffffffffffffffffffffffffffffffffffffffffffffff0382111561403c5761403b614299565b5b828201905092915050565b600061405282614170565b915061405d83614170565b92508261406d5761406c6142c8565b5b828204905092915050565b600061408382614170565b915061408e83614170565b9250817fffffffffffffffffffffffffffffffffffffffffffffffffffffffffffffffff04831182151516156140c7576140c6614299565b5b828202905092915050565b60006140dd82614170565b91506140e883614170565b9250828210156140fb576140fa614299565b5b828203905092915050565b600061411182614150565b9050919050565b60008115159050919050565b60007fffffffff0000000000000000000000000000000000000000000000000000000082169050919050565b600073ffffffffffffffffffffffffffffffffffffffff82169050919050565b6000819050919050565b82818337600083830152505050565b60005b838110156141a757808201518184015260208101905061418c565b838111156141b6576000848401525b50505050565b600060028204905060018216806141d457607f821691505b602082108114156141e8576141e76142f7565b5b50919050565b6141f782614355565b810181811067ffffffffffffffff8211171561421657614215614326565b5b80604052505050565b600061422a82614170565b91507fffffffffffffffffffffffffffffffffffffffffffffffffffffffffffffffff82141561425d5761425c614299565b5b600182019050919050565b600061427382614170565b915061427e83614170565b92508261428e5761428d6142c8565b5b828206905092915050565b7f4e487b7100000000000000000000000000000000000000000000000000000000600052601160045260246000fd5b7f4e487b7100000000000000000000000000000000000000000000000000000000600052601260045260246000fd5b7f4e487b7100000000000000000000000000000000000000000000000000000000600052602260045260246000fd5b7f4e487b7100000000000000000000000000000000000000000000000000000000600052604160045260246000fd5b6000601f19601f8301169050919050565b7f5061757361626c653a206e6f7420706175736564000000000000000000000000600082015250565b7f4e6f7420656e6f756768204e4654732100000000000000000000000000000000600082015250565b7f455243373231456e756d657261626c653a206f776e657220696e646578206f7560008201527f74206f6620626f756e6473000000000000000000000000000000000000000000602082015250565b7f4552433732313a207472616e7366657220746f206e6f6e20455243373231526560008201527f63656976657220696d706c656d656e7465720000000000000000000000000000602082015250565b7f4f776e61626c653a206e6577206f776e657220697320746865207a65726f206160008201527f6464726573730000000000000000000000000000000000000000000000000000602082015250565b7f4552433732313a20746f6b656e20616c7265616479206d696e74656400000000600082015250565b7f4552433732313a207472616e7366657220746f20746865207a65726f2061646460008201527f7265737300000000000000000000000000000000000000000000000000000000602082015250565b7f4552433732313a20617070726f766520746f2063616c6c657200000000000000600082015250565b7f4e6f7420656e6f75676820657468657220746f207075726368617365204e465460008201527f732e000000000000000000000000000000000000000000000000000000000000602082015250565b7f43616e6e6f74206d696e7420737065636966696564206e756d626572206f662060008201527f4e4654732e000000000000000000000000000000000000000000000000000000602082015250565b7f4552433732313a206f70657261746f7220717565727920666f72206e6f6e657860008201527f697374656e7420746f6b656e0000000000000000000000000000000000000000602082015250565b7f5061757361626c653a2070617573656400000000000000000000000000000000600082015250565b7f4552433732313a20617070726f76652063616c6c6572206973206e6f74206f7760008201527f6e6572206e6f7220617070726f76656420666f7220616c6c0000000000000000602082015250565b7f4552433732313a2062616c616e636520717565727920666f7220746865207a6560008201527f726f206164647265737300000000000000000000000000000000000000000000602082015250565b7f4552433732313a206f776e657220717565727920666f72206e6f6e657869737460008201527f656e7420746f6b656e0000000000000000000000000000000000000000000000602082015250565b7f45524337323155524953746f726167653a2055524920736574206f66206e6f6e60008201527f6578697374656e7420746f6b656e000000000000000000000000000000000000602082015250565b7f4e6f7420656e6f756768204e4654730000000000000000000000000000000000600082015250565b7f4552433732313a206d696e7420746f20746865207a65726f2061646472657373600082015250565b7f4e6f206574686572206c65667420746f20776974686472617700000000000000600082015250565b7f45524337323155524953746f726167653a2055524920717565727920666f722060008201527f6e6f6e6578697374656e7420746f6b656e000000000000000000000000000000602082015250565b7f4552433732313a20617070726f76656420717565727920666f72206e6f6e657860008201527f697374656e7420746f6b656e0000000000000000000000000000000000000000602082015250565b7f4f776e61626c653a2063616c6c6572206973206e6f7420746865206f776e6572600082015250565b7f4552433732313a207472616e73666572206f6620746f6b656e2074686174206960008201527f73206e6f74206f776e0000000000000000000000000000000000000000000000602082015250565b7f4552433732314d657461646174613a2055524920717565727920666f72206e6f60008201527f6e6578697374656e7420746f6b656e0000000000000000000000000000000000602082015250565b7f4552433732313a20617070726f76616c20746f2063757272656e74206f776e6560008201527f7200000000000000000000000000000000000000000000000000000000000000602082015250565b50565b7f5472616e73666572206661696c65642e00000000000000000000000000000000600082015250565b7f4552433732313a207472616e736665722063616c6c6572206973206e6f74206f60008201527f776e6572206e6f7220617070726f766564000000000000000000000000000000602082015250565b7f455243373231456e756d657261626c653a20676c6f62616c20696e646578206f60008201527f7574206f6620626f756e64730000000000000000000000000000000000000000602082015250565b614a9a81614106565b8114614aa557600080fd5b50565b614ab181614118565b8114614abc57600080fd5b50565b614ac881614124565b8114614ad357600080fd5b50565b614adf81614170565b8114614aea57600080fd5b5056fea2646970667358221220a9c1bb45531f37ebe3110ea67f8408bfa167075980dc55e06d64545bf2274dcf64736f6c63430008020033697066733a2f2f516d6463454743366e356f6363454b577136457934326f73327672375a4652665641796b674c57637a6e624831792f",
    "linkReferences": {},
    "deployedLinkReferences": {}
}